{
  "address": "0x155Cec5AbcfC1DB70013f8Fc66E3042AF5f73700",
  "abi": [
    {
      "inputs": [
        {
          "internalType": "address",
          "name": "vrfCoordinatorV2",
          "type": "address"
        },
        {
          "internalType": "uint256",
          "name": "entranceFee",
          "type": "uint256"
        },
        {
          "internalType": "bytes32",
          "name": "gasLane",
          "type": "bytes32"
        },
        {
          "internalType": "uint64",
          "name": "subscriptionId",
          "type": "uint64"
        },
        {
          "internalType": "uint32",
          "name": "callbackGasLimit",
          "type": "uint32"
        },
        {
          "internalType": "uint256",
          "name": "interval",
          "type": "uint256"
        }
      ],
      "stateMutability": "nonpayable",
      "type": "constructor"
    },
    {
      "inputs": [],
      "name": "Lottery__NotEnoughETHEntered",
      "type": "error"
    },
    {
      "inputs": [],
      "name": "Lottery__NotOpen",
      "type": "error"
    },
    {
      "inputs": [],
      "name": "Lottery__TransferFailed",
      "type": "error"
    },
    {
      "inputs": [
        {
          "internalType": "uint256",
          "name": "currentBalance",
          "type": "uint256"
        },
        {
          "internalType": "uint256",
          "name": "numPlayers",
          "type": "uint256"
        },
        {
          "internalType": "uint256",
          "name": "lotteryState",
          "type": "uint256"
        }
      ],
      "name": "Lottery__UpkeepNotNeeded",
      "type": "error"
    },
    {
      "inputs": [
        {
          "internalType": "address",
          "name": "have",
          "type": "address"
        },
        {
          "internalType": "address",
          "name": "want",
          "type": "address"
        }
      ],
      "name": "OnlyCoordinatorCanFulfill",
      "type": "error"
    },
    {
      "anonymous": false,
      "inputs": [
        {
          "indexed": true,
          "internalType": "address",
          "name": "player",
          "type": "address"
        }
      ],
      "name": "LotteryEnter",
      "type": "event"
    },
    {
      "anonymous": false,
      "inputs": [
        {
          "indexed": true,
          "internalType": "uint256",
          "name": "requestId",
          "type": "uint256"
        }
      ],
      "name": "RequestedLotteryWinner",
      "type": "event"
    },
    {
      "anonymous": false,
      "inputs": [
        {
          "indexed": true,
          "internalType": "address",
          "name": "winner",
          "type": "address"
        }
      ],
      "name": "WinnerPicked",
      "type": "event"
    },
    {
      "inputs": [
        {
          "internalType": "bytes",
          "name": "",
          "type": "bytes"
        }
      ],
      "name": "checkUpkeep",
      "outputs": [
        {
          "internalType": "bool",
          "name": "upkeepNeeded",
          "type": "bool"
        },
        {
          "internalType": "bytes",
          "name": "",
          "type": "bytes"
        }
      ],
      "stateMutability": "view",
      "type": "function"
    },
    {
      "inputs": [],
      "name": "enterLottery",
      "outputs": [],
      "stateMutability": "payable",
      "type": "function"
    },
    {
      "inputs": [],
      "name": "getEntranceFee",
      "outputs": [
        {
          "internalType": "uint256",
          "name": "",
          "type": "uint256"
        }
      ],
      "stateMutability": "view",
      "type": "function"
    },
    {
      "inputs": [],
      "name": "getInterval",
      "outputs": [
        {
          "internalType": "uint256",
          "name": "",
          "type": "uint256"
        }
      ],
      "stateMutability": "view",
      "type": "function"
    },
    {
      "inputs": [],
      "name": "getLatestTimeStamp",
      "outputs": [
        {
          "internalType": "uint256",
          "name": "",
          "type": "uint256"
        }
      ],
      "stateMutability": "view",
      "type": "function"
    },
    {
      "inputs": [],
      "name": "getLotteryState",
      "outputs": [
        {
          "internalType": "enum Lottery.LotteryState",
          "name": "",
          "type": "uint8"
        }
      ],
      "stateMutability": "view",
      "type": "function"
    },
    {
      "inputs": [],
      "name": "getNumWords",
      "outputs": [
        {
          "internalType": "uint256",
          "name": "",
          "type": "uint256"
        }
      ],
      "stateMutability": "pure",
      "type": "function"
    },
    {
      "inputs": [],
      "name": "getNumberOfPlayers",
      "outputs": [
        {
          "internalType": "uint256",
          "name": "",
          "type": "uint256"
        }
      ],
      "stateMutability": "view",
      "type": "function"
    },
    {
      "inputs": [
        {
          "internalType": "uint256",
          "name": "index",
          "type": "uint256"
        }
      ],
      "name": "getPlayer",
      "outputs": [
        {
          "internalType": "address",
          "name": "",
          "type": "address"
        }
      ],
      "stateMutability": "view",
      "type": "function"
    },
    {
      "inputs": [],
      "name": "getRecentWinner",
      "outputs": [
        {
          "internalType": "address",
          "name": "",
          "type": "address"
        }
      ],
      "stateMutability": "view",
      "type": "function"
    },
    {
      "inputs": [],
      "name": "getRequestConformations",
      "outputs": [
        {
          "internalType": "uint256",
          "name": "",
          "type": "uint256"
        }
      ],
      "stateMutability": "pure",
      "type": "function"
    },
    {
      "inputs": [
        {
          "internalType": "bytes",
          "name": "",
          "type": "bytes"
        }
      ],
      "name": "performUpkeep",
      "outputs": [],
      "stateMutability": "nonpayable",
      "type": "function"
    },
    {
      "inputs": [
        {
          "internalType": "uint256",
          "name": "requestId",
          "type": "uint256"
        },
        {
          "internalType": "uint256[]",
          "name": "randomWords",
          "type": "uint256[]"
        }
      ],
      "name": "rawFulfillRandomWords",
      "outputs": [],
      "stateMutability": "nonpayable",
      "type": "function"
    }
  ],
  "transactionHash": "0x2472b8e177b46b56cf8eeee42730edd6b3c18813f77773fa27aa09249a214488",
  "args": [
    "0x8103B0A8A00be2DDC778e6e7eaa21791Cd364625",
    "10000000000000000",
    "0x474e34a077df58807dbe9c96d3c009b23b3c6d0cce433e59bbf5b34f823bc56c",
    "7754",
    "500000",
    "30"
  ],
  "numDeployments": 1,
  "solcInputHash": "3fd4044e7175d4c051de1f3ae2f4f703",
  "bytecode": "0x6101606040523480156200001257600080fd5b506040516200184d3803806200184d8339818101604052810190620000389190620001ad565b858073ffffffffffffffffffffffffffffffffffffffff1660808173ffffffffffffffffffffffffffffffffffffffff1660601b81525050508460a081815250508573ffffffffffffffffffffffffffffffffffffffff1660c08173ffffffffffffffffffffffffffffffffffffffff1660601b815250508360e081815250508267ffffffffffffffff166101008167ffffffffffffffff1660c01b815250508163ffffffff166101208163ffffffff1660e01b815250506000600160146101000a81548160ff02191690836001811115620001195762000118620002b5565b5b0217905550426002819055508061014081815250505050505050506200036b565b6000815190506200014b81620002e9565b92915050565b600081519050620001628162000303565b92915050565b60008151905062000179816200031d565b92915050565b600081519050620001908162000337565b92915050565b600081519050620001a78162000351565b92915050565b60008060008060008060c08789031215620001cd57620001cc620002e4565b5b6000620001dd89828a016200013a565b9650506020620001f089828a0162000168565b95505060406200020389828a0162000151565b94505060606200021689828a0162000196565b93505060806200022989828a016200017f565b92505060a06200023c89828a0162000168565b9150509295509295509295565b6000620002568262000267565b9050919050565b6000819050919050565b600073ffffffffffffffffffffffffffffffffffffffff82169050919050565b6000819050919050565b600063ffffffff82169050919050565b600067ffffffffffffffff82169050919050565b7f4e487b7100000000000000000000000000000000000000000000000000000000600052602160045260246000fd5b600080fd5b620002f48162000249565b81146200030057600080fd5b50565b6200030e816200025d565b81146200031a57600080fd5b50565b620003288162000287565b81146200033457600080fd5b50565b620003428162000291565b81146200034e57600080fd5b50565b6200035c81620002a1565b81146200036857600080fd5b50565b60805160601c60a05160c05160601c60e0516101005160c01c6101205160e01c61014051611466620003e76000396000818161068601526107090152600061052b01526000610508015260006104e7015260006104ab015260008181610306015261072f01526000818161032c015261038001526114666000f3fe6080604052600436106100c15760003560e01c806353a2c19a1161007f57806391ad27b41161005957806391ad27b414610258578063c1af578514610283578063e55ae4e81461028d578063fd6673f5146102ca576100c1565b806353a2c19a146101c45780636b68c03c146101ef5780636e04ff0d1461021a576100c1565b8062ae0c3f146100c657806309bc33a7146100f15780631fe543e31461011c578063320229eb146101455780634585e33b14610170578063473f1ddc14610199575b600080fd5b3480156100d257600080fd5b506100db6102f5565b6040516100e8919061106c565b60405180910390f35b3480156100fd57600080fd5b50610106610302565b604051610113919061106c565b60405180910390f35b34801561012857600080fd5b50610143600480360381019061013e9190610e45565b61032a565b005b34801561015157600080fd5b5061015a6103ea565b604051610167919061106c565b60405180910390f35b34801561017c57600080fd5b5061019760048036038101906101929190610d55565b6103f4565b005b3480156101a557600080fd5b506101ae6105f3565b6040516101bb9190610f8a565b60405180910390f35b3480156101d057600080fd5b506101d961061d565b6040516101e6919061106c565b60405180910390f35b3480156101fb57600080fd5b5061020461062c565b6040516102119190611051565b60405180910390f35b34801561022657600080fd5b50610241600480360381019061023c9190610da2565b610643565b60405161024f929190610fce565b60405180910390f35b34801561026457600080fd5b5061026d610705565b60405161027a919061106c565b60405180910390f35b61028b61072d565b005b34801561029957600080fd5b506102b460048036038101906102af9190610deb565b61089c565b6040516102c19190610f8a565b60405180910390f35b3480156102d657600080fd5b506102df6108e3565b6040516102ec919061106c565b60405180910390f35b6000600361ffff16905090565b60007f0000000000000000000000000000000000000000000000000000000000000000905090565b7f000000000000000000000000000000000000000000000000000000000000000073ffffffffffffffffffffffffffffffffffffffff163373ffffffffffffffffffffffffffffffffffffffff16146103dc57337f00000000000000000000000000000000000000000000000000000000000000006040517f1cf993f40000000000000000000000000000000000000000000000000000000081526004016103d3929190610fa5565b60405180910390fd5b6103e682826108ef565b5050565b6000600254905090565b600061040e60405180602001604052806000815250610643565b5090508061047d5747600080549050600160149054906101000a900460ff16600181111561043f5761043e611346565b5b6040517f6e195f2500000000000000000000000000000000000000000000000000000000815260040161047493929190611087565b60405180910390fd5b60018060146101000a81548160ff021916908360018111156104a2576104a1611346565b5b021790555060007f000000000000000000000000000000000000000000000000000000000000000073ffffffffffffffffffffffffffffffffffffffff16635d3b1d307f00000000000000000000000000000000000000000000000000000000000000007f000000000000000000000000000000000000000000000000000000000000000060037f000000000000000000000000000000000000000000000000000000000000000060016040518663ffffffff1660e01b815260040161056c959493929190610ffe565b602060405180830381600087803b15801561058657600080fd5b505af115801561059a573d6000803e3d6000fd5b505050506040513d601f19601f820116820180604052508101906105be9190610e18565b9050807febf56642252004c18a776f30d528e7a0ce8c5db14b6596fb6550f630c8a24c6c60405160405180910390a250505050565b6000600160009054906101000a900473ffffffffffffffffffffffffffffffffffffffff16905090565b6000600163ffffffff16905090565b6000600160149054906101000a900460ff16905090565b600060606000600160149054906101000a900460ff16600181111561066b5761066a611346565b5b6000600181111561067f5761067e611346565b5b14905060007f0000000000000000000000000000000000000000000000000000000000000000600254426106b39190611167565b119050600080600080549050119050600080471190508380156106d35750825b80156106dc5750815b80156106e55750805b955085604051806020016040528060008152509550955050505050915091565b60007f0000000000000000000000000000000000000000000000000000000000000000905090565b7f0000000000000000000000000000000000000000000000000000000000000000341015610787576040517fec269fd100000000000000000000000000000000000000000000000000000000815260040160405180910390fd5b6000600181111561079b5761079a611346565b5b600160149054906101000a900460ff1660018111156107bd576107bc611346565b5b146107f4576040517fe76be6fc00000000000000000000000000000000000000000000000000000000815260040160405180910390fd5b6000339080600181540180825580915050600190039060005260206000200160009091909190916101000a81548173ffffffffffffffffffffffffffffffffffffffff021916908373ffffffffffffffffffffffffffffffffffffffff1602179055503373ffffffffffffffffffffffffffffffffffffffff167f1d64fb5ba9f2548c5b98468d58f25b87b9e866afee0122e92d9fe722bf85076c60405160405180910390a2565b60008082815481106108b1576108b0611375565b5b9060005260206000200160009054906101000a900473ffffffffffffffffffffffffffffffffffffffff169050919050565b60008080549050905090565b600080805490508260008151811061090a57610909611375565b5b602002602001015161091c91906112b7565b9050600080828154811061093357610932611375565b5b9060005260206000200160009054906101000a900473ffffffffffffffffffffffffffffffffffffffff16905080600160006101000a81548173ffffffffffffffffffffffffffffffffffffffff021916908373ffffffffffffffffffffffffffffffffffffffff1602179055506000600160146101000a81548160ff021916908360018111156109c7576109c6611346565b5b0217905550600067ffffffffffffffff8111156109e7576109e66113a4565b5b604051908082528060200260200182016040528015610a155781602001602082028036833780820191505090505b5060009080519060200190610a2b929190610b20565b504260028190555060008173ffffffffffffffffffffffffffffffffffffffff1647604051610a5990610f75565b60006040518083038185875af1925050503d8060008114610a96576040519150601f19603f3d011682016040523d82523d6000602084013e610a9b565b606091505b5050905080610ad6576040517f1c94012000000000000000000000000000000000000000000000000000000000815260040160405180910390fd5b8173ffffffffffffffffffffffffffffffffffffffff167f5b690ec4a06fe979403046eaeea5b3ce38524683c3001f662c8b5a829632f7df60405160405180910390a25050505050565b828054828255906000526020600020908101928215610b99579160200282015b82811115610b985782518260006101000a81548173ffffffffffffffffffffffffffffffffffffffff021916908373ffffffffffffffffffffffffffffffffffffffff16021790555091602001919060010190610b40565b5b509050610ba69190610baa565b5090565b5b80821115610bc3576000816000905550600101610bab565b5090565b6000610bda610bd5846110e3565b6110be565b90508083825260208201905082856020860282011115610bfd57610bfc6113dd565b5b60005b85811015610c2d5781610c138882610d2b565b845260208401935060208301925050600181019050610c00565b5050509392505050565b6000610c4a610c458461110f565b6110be565b905082815260208101848484011115610c6657610c656113e2565b5b610c71848285611244565b509392505050565b600082601f830112610c8e57610c8d6113d8565b5b8135610c9e848260208601610bc7565b91505092915050565b60008083601f840112610cbd57610cbc6113d8565b5b8235905067ffffffffffffffff811115610cda57610cd96113d3565b5b602083019150836001820283011115610cf657610cf56113dd565b5b9250929050565b600082601f830112610d1257610d116113d8565b5b8135610d22848260208601610c37565b91505092915050565b600081359050610d3a81611419565b92915050565b600081519050610d4f81611419565b92915050565b60008060208385031215610d6c57610d6b6113ec565b5b600083013567ffffffffffffffff811115610d8a57610d896113e7565b5b610d9685828601610ca7565b92509250509250929050565b600060208284031215610db857610db76113ec565b5b600082013567ffffffffffffffff811115610dd657610dd56113e7565b5b610de284828501610cfd565b91505092915050565b600060208284031215610e0157610e006113ec565b5b6000610e0f84828501610d2b565b91505092915050565b600060208284031215610e2e57610e2d6113ec565b5b6000610e3c84828501610d40565b91505092915050565b60008060408385031215610e5c57610e5b6113ec565b5b6000610e6a85828601610d2b565b925050602083013567ffffffffffffffff811115610e8b57610e8a6113e7565b5b610e9785828601610c79565b9150509250929050565b610eaa8161119b565b82525050565b610eb9816111ad565b82525050565b610ec8816111b9565b82525050565b6000610ed982611140565b610ee3818561114b565b9350610ef3818560208601611253565b610efc816113f1565b840191505092915050565b610f1081611232565b82525050565b6000610f2360008361115c565b9150610f2e82611402565b600082019050919050565b610f42816111d6565b82525050565b610f5181611204565b82525050565b610f608161120e565b82525050565b610f6f8161121e565b82525050565b6000610f8082610f16565b9150819050919050565b6000602082019050610f9f6000830184610ea1565b92915050565b6000604082019050610fba6000830185610ea1565b610fc76020830184610ea1565b9392505050565b6000604082019050610fe36000830185610eb0565b8181036020830152610ff58184610ece565b90509392505050565b600060a0820190506110136000830188610ebf565b6110206020830187610f66565b61102d6040830186610f39565b61103a6060830185610f57565b6110476080830184610f57565b9695505050505050565b60006020820190506110666000830184610f07565b92915050565b60006020820190506110816000830184610f48565b92915050565b600060608201905061109c6000830186610f48565b6110a96020830185610f48565b6110b66040830184610f48565b949350505050565b60006110c86110d9565b90506110d48282611286565b919050565b6000604051905090565b600067ffffffffffffffff8211156110fe576110fd6113a4565b5b602082029050602081019050919050565b600067ffffffffffffffff82111561112a576111296113a4565b5b611133826113f1565b9050602081019050919050565b600081519050919050565b600082825260208201905092915050565b600081905092915050565b600061117282611204565b915061117d83611204565b9250828210156111905761118f6112e8565b5b828203905092915050565b60006111a6826111e4565b9050919050565b60008115159050919050565b6000819050919050565b60008190506111d182611405565b919050565b600061ffff82169050919050565b600073ffffffffffffffffffffffffffffffffffffffff82169050919050565b6000819050919050565b600063ffffffff82169050919050565b600067ffffffffffffffff82169050919050565b600061123d826111c3565b9050919050565b82818337600083830152505050565b60005b83811015611271578082015181840152602081019050611256565b83811115611280576000848401525b50505050565b61128f826113f1565b810181811067ffffffffffffffff821117156112ae576112ad6113a4565b5b80604052505050565b60006112c282611204565b91506112cd83611204565b9250826112dd576112dc611317565b5b828206905092915050565b7f4e487b7100000000000000000000000000000000000000000000000000000000600052601160045260246000fd5b7f4e487b7100000000000000000000000000000000000000000000000000000000600052601260045260246000fd5b7f4e487b7100000000000000000000000000000000000000000000000000000000600052602160045260246000fd5b7f4e487b7100000000000000000000000000000000000000000000000000000000600052603260045260246000fd5b7f4e487b7100000000000000000000000000000000000000000000000000000000600052604160045260246000fd5b600080fd5b600080fd5b600080fd5b600080fd5b600080fd5b600080fd5b6000601f19601f8301169050919050565b50565b6002811061141657611415611346565b5b50565b61142281611204565b811461142d57600080fd5b5056fea26469706673582212202f6edc56167c235dfabf5231f1df09ada0c530c839c56050c9032f3ab2fd814764736f6c63430008070033",
  "devdoc": {
    "kind": "dev",
    "methods": {},
    "version": 1
  },
  "userdoc": {
    "kind": "user",
    "methods": {},
    "version": 1
  },
  "storageLayout": {
    "storage": [
      {
        "astId": 245,
        "contract": "contracts/Lottery.sol:Lottery",
        "label": "s_players",
        "offset": 0,
        "slot": "0",
        "type": "t_array(t_address_payable)dyn_storage"
      },
      {
        "astId": 262,
        "contract": "contracts/Lottery.sol:Lottery",
        "label": "s_recentWinner",
        "offset": 0,
        "slot": "1",
        "type": "t_address"
      },
      {
        "astId": 265,
        "contract": "contracts/Lottery.sol:Lottery",
        "label": "s_lotteryState",
        "offset": 20,
        "slot": "1",
        "type": "t_enum(LotteryState)240"
      },
      {
        "astId": 267,
        "contract": "contracts/Lottery.sol:Lottery",
        "label": "s_lastTimeStamp",
        "offset": 0,
        "slot": "2",
        "type": "t_uint256"
      }
    ],
    "types": {
      "t_address": {
        "encoding": "inplace",
        "label": "address",
        "numberOfBytes": "20"
      },
      "t_address_payable": {
        "encoding": "inplace",
        "label": "address payable",
        "numberOfBytes": "20"
      },
      "t_array(t_address_payable)dyn_storage": {
        "base": "t_address_payable",
        "encoding": "dynamic_array",
        "label": "address payable[]",
        "numberOfBytes": "32"
      },
      "t_enum(LotteryState)240": {
        "encoding": "inplace",
        "label": "enum Lottery.LotteryState",
        "numberOfBytes": "1"
      },
      "t_uint256": {
        "encoding": "inplace",
        "label": "uint256",
        "numberOfBytes": "32"
      }
    }
  }
}